{
  "_format": "hh-sol-artifact-1",
  "contractName": "BuyMeACoffee",
  "sourceName": "contracts/BuyMeACoffee.sol",
  "abi": [
    {
      "inputs": [],
      "stateMutability": "nonpayable",
      "type": "constructor"
    },
    {
      "anonymous": false,
      "inputs": [
        {
          "indexed": true,
          "internalType": "address",
          "name": "from",
          "type": "address"
        },
        {
          "indexed": false,
          "internalType": "uint256",
          "name": "timeStamp",
          "type": "uint256"
        },
        {
          "indexed": false,
          "internalType": "string",
          "name": "name",
          "type": "string"
        },
        {
          "indexed": false,
          "internalType": "string",
          "name": "message",
          "type": "string"
        }
      ],
      "name": "NewMemo",
      "type": "event"
    },
    {
      "inputs": [
        {
          "internalType": "string",
          "name": "_name",
          "type": "string"
        },
        {
          "internalType": "string",
          "name": "_message",
          "type": "string"
        }
      ],
      "name": "buyCoffee",
      "outputs": [],
      "stateMutability": "payable",
      "type": "function"
    },
    {
      "inputs": [],
      "name": "getMemos",
      "outputs": [
        {
          "components": [
            {
              "internalType": "address",
              "name": "from",
              "type": "address"
            },
            {
              "internalType": "uint256",
              "name": "timeStamp",
              "type": "uint256"
            },
            {
              "internalType": "string",
              "name": "name",
              "type": "string"
            },
            {
              "internalType": "string",
              "name": "message",
              "type": "string"
            }
          ],
          "internalType": "struct BuyMeACoffee.Memo[]",
          "name": "",
          "type": "tuple[]"
        }
      ],
      "stateMutability": "view",
      "type": "function"
    }
  ],
  "bytecode": "0x608060405234801561001057600080fd5b50336000806101000a81548173ffffffffffffffffffffffffffffffffffffffff021916908373ffffffffffffffffffffffffffffffffffffffff160217905550610c50806100606000396000f3fe6080604052600436106100295760003560e01c8063204206e11461002e578063865c51721461004a575b600080fd5b61004860048036038101906100439190610593565b610075565b005b34801561005657600080fd5b5061005f610256565b60405161006c9190610810565b60405180910390f35b600034116100b8576040517f08c379a00000000000000000000000000000000000000000000000000000000081526004016100af9061088f565b60405180910390fd5b60008054906101000a900473ffffffffffffffffffffffffffffffffffffffff1673ffffffffffffffffffffffffffffffffffffffff166108fc349081150290604051600060405180830381858888f1935050505015801561011e573d6000803e3d6000fd5b50600160405180608001604052803373ffffffffffffffffffffffffffffffffffffffff16815260200142815260200184815260200183815250908060018154018082558091505060019003906000526020600020906004020160009091909190915060008201518160000160006101000a81548173ffffffffffffffffffffffffffffffffffffffff021916908373ffffffffffffffffffffffffffffffffffffffff1602179055506020820151816001015560408201518160020190816101e79190610abb565b5060608201518160030190816101fd9190610abb565b5050503373ffffffffffffffffffffffffffffffffffffffff167fc56140e05f516509ae28110e0f72e17558a7561630dad2647c3ae87d986e365c42848460405161024a93929190610bd5565b60405180910390a25050565b60606001805480602002602001604051908101604052809291908181526020016000905b8282101561043057838290600052602060002090600402016040518060800160405290816000820160009054906101000a900473ffffffffffffffffffffffffffffffffffffffff1673ffffffffffffffffffffffffffffffffffffffff1673ffffffffffffffffffffffffffffffffffffffff1681526020016001820154815260200160028201805461030d906108de565b80601f0160208091040260200160405190810160405280929190818152602001828054610339906108de565b80156103865780601f1061035b57610100808354040283529160200191610386565b820191906000526020600020905b81548152906001019060200180831161036957829003601f168201915b5050505050815260200160038201805461039f906108de565b80601f01602080910402602001604051908101604052809291908181526020018280546103cb906108de565b80156104185780601f106103ed57610100808354040283529160200191610418565b820191906000526020600020905b8154815290600101906020018083116103fb57829003601f168201915b5050505050815250508152602001906001019061027a565b50505050905090565b6000604051905090565b600080fd5b600080fd5b600080fd5b600080fd5b6000601f19601f8301169050919050565b7f4e487b7100000000000000000000000000000000000000000000000000000000600052604160045260246000fd5b6104a082610457565b810181811067ffffffffffffffff821117156104bf576104be610468565b5b80604052505050565b60006104d2610439565b90506104de8282610497565b919050565b600067ffffffffffffffff8211156104fe576104fd610468565b5b61050782610457565b9050602081019050919050565b82818337600083830152505050565b6000610536610531846104e3565b6104c8565b90508281526020810184848401111561055257610551610452565b5b61055d848285610514565b509392505050565b600082601f83011261057a5761057961044d565b5b813561058a848260208601610523565b91505092915050565b600080604083850312156105aa576105a9610443565b5b600083013567ffffffffffffffff8111156105c8576105c7610448565b5b6105d485828601610565565b925050602083013567ffffffffffffffff8111156105f5576105f4610448565b5b61060185828601610565565b9150509250929050565b600081519050919050565b600082825260208201905092915050565b6000819050602082019050919050565b600073ffffffffffffffffffffffffffffffffffffffff82169050919050565b600061066282610637565b9050919050565b61067281610657565b82525050565b6000819050919050565b61068b81610678565b82525050565b600081519050919050565b600082825260208201905092915050565b60005b838110156106cb5780820151818401526020810190506106b0565b60008484015250505050565b60006106e282610691565b6106ec818561069c565b93506106fc8185602086016106ad565b61070581610457565b840191505092915050565b60006080830160008301516107286000860182610669565b50602083015161073b6020860182610682565b506040830151848203604086015261075382826106d7565b9150506060830151848203606086015261076d82826106d7565b9150508091505092915050565b60006107868383610710565b905092915050565b6000602082019050919050565b60006107a68261060b565b6107b08185610616565b9350836020820285016107c285610627565b8060005b858110156107fe57848403895281516107df858261077a565b94506107ea8361078e565b925060208a019950506001810190506107c6565b50829750879550505050505092915050565b6000602082019050818103600083015261082a818461079b565b905092915050565b600082825260208201905092915050565b7f596f75206e65656420746f20706179206d6f7265207468616e20300000000000600082015250565b6000610879601b83610832565b915061088482610843565b602082019050919050565b600060208201905081810360008301526108a88161086c565b9050919050565b7f4e487b7100000000000000000000000000000000000000000000000000000000600052602260045260246000fd5b600060028204905060018216806108f657607f821691505b602082108103610909576109086108af565b5b50919050565b60008190508160005260206000209050919050565b60006020601f8301049050919050565b600082821b905092915050565b6000600883026109717fffffffffffffffffffffffffffffffffffffffffffffffffffffffffffffffff82610934565b61097b8683610934565b95508019841693508086168417925050509392505050565b6000819050919050565b60006109b86109b36109ae84610678565b610993565b610678565b9050919050565b6000819050919050565b6109d28361099d565b6109e66109de826109bf565b848454610941565b825550505050565b600090565b6109fb6109ee565b610a068184846109c9565b505050565b5b81811015610a2a57610a1f6000826109f3565b600181019050610a0c565b5050565b601f821115610a6f57610a408161090f565b610a4984610924565b81016020851015610a58578190505b610a6c610a6485610924565b830182610a0b565b50505b505050565b600082821c905092915050565b6000610a9260001984600802610a74565b1980831691505092915050565b6000610aab8383610a81565b9150826002028217905092915050565b610ac482610691565b67ffffffffffffffff811115610add57610adc610468565b5b610ae782546108de565b610af2828285610a2e565b600060209050601f831160018114610b255760008415610b13578287015190505b610b1d8582610a9f565b865550610b85565b601f198416610b338661090f565b60005b82811015610b5b57848901518255600182019150602085019450602081019050610b36565b86831015610b785784890151610b74601f891682610a81565b8355505b6001600288020188555050505b505050505050565b610b9681610678565b82525050565b6000610ba782610691565b610bb18185610832565b9350610bc18185602086016106ad565b610bca81610457565b840191505092915050565b6000606082019050610bea6000830186610b8d565b8181036020830152610bfc8185610b9c565b90508181036040830152610c108184610b9c565b905094935050505056fea2646970667358221220964116b165cd7d00d146e1ee082e44a49849a0cccb558a8b27d9eec90b5fa9e564736f6c63430008180033",
  "linkReferences": {},
  "deployedLinkReferences": {}
}